{
  "transactions": [
    {
      "hash": "0x94a2d529814498f26988978b715a295f0f5f81e4cd2f51581abf5bbfb763aa00",
      "transactionType": "CALL",
      "contractName": null,
      "contractAddress": "0x043c471bee060e00a56ccd02c0ca286808a5a436",
      "function": "approve(address,uint256)",
      "arguments": [
        "0x8cc13474301FE5AA08c920dB228A3BB1E68F5b13",
        "10000000000000000000"
      ],
      "transaction": {
        "from": "0x21da5f265e1431b7d9c5660ae67d4dea91159d66",
        "to": "0x043c471bee060e00a56ccd02c0ca286808a5a436",
        "gas": "0x1077e",
        "value": "0x0",
        "input": "0x095ea7b30000000000000000000000008cc13474301fe5aa08c920db228a3bb1e68f5b130000000000000000000000000000000000000000000000008ac7230489e80000",
        "nonce": "0xa",
        "chainId": "0x3e9"
      },
      "additionalContracts": [],
      "isFixedGasLimit": false
    },
    {
      "hash": "0xbc24f01a3b1d50a6c4efb604c45fc85f975c51772b46d293c2f2e2fd2d4219f3",
      "transactionType": "CALL",
      "contractName": null,
      "contractAddress": "0x6283d8384d8f6eaf24ec44d355f31cec0bdace3d",
      "function": "approve(address,uint256)",
      "arguments": [
        "0x8cc13474301FE5AA08c920dB228A3BB1E68F5b13",
        "1000000000000000000000"
      ],
      "transaction": {
        "from": "0x21da5f265e1431b7d9c5660ae67d4dea91159d66",
        "to": "0x6283d8384d8f6eaf24ec44d355f31cec0bdace3d",
        "gas": "0x10c6b",
        "value": "0x0",
        "input": "0x095ea7b30000000000000000000000008cc13474301fe5aa08c920db228a3bb1e68f5b1300000000000000000000000000000000000000000000003635c9adc5dea00000",
        "nonce": "0xb",
        "chainId": "0x3e9"
      },
      "additionalContracts": [],
      "isFixedGasLimit": false
    },
    {
      "hash": "0x5acb160325204eeae6ca8df943b82c290b41dea6bef821808e88fca2ee074905",
      "transactionType": "CALL",
      "contractName": null,
      "contractAddress": "0x8cc13474301fe5aa08c920db228a3bb1e68f5b13",
      "function": "addLiquidity(uint256,uint256)",
      "arguments": [
        "10000000000000000000",
        "1000000000000000000000"
      ],
      "transaction": {
        "from": "0x21da5f265e1431b7d9c5660ae67d4dea91159d66",
        "to": "0x8cc13474301fe5aa08c920db228a3bb1e68f5b13",
        "gas": "0x51ae2",
        "value": "0x0",
        "input": "0x9cd441da0000000000000000000000000000000000000000000000008ac7230489e8000000000000000000000000000000000000000000000000003635c9adc5dea00000",
        "nonce": "0xc",
        "chainId": "0x3e9"
      },
      "additionalContracts": [],
      "isFixedGasLimit": false
    }
  ],
  "receipts": [
    {
      "status": "0x1",
      "cumulativeGasUsed": "0xb42b",
      "logs": [
        {
          "address": "0x043c471bee060e00a56ccd02c0ca286808a5a436",
          "topics": [
            "0x8c5be1e5ebec7d5bd14f71427d1e84f3dd0314c0f7b2291e5b200ac8c7c3b925",
            "0x00000000000000000000000021da5f265e1431b7d9c5660ae67d4dea91159d66",
            "0x0000000000000000000000008cc13474301fe5aa08c920db228a3bb1e68f5b13"
          ],
          "data": "0x0000000000000000000000000000000000000000000000008ac7230489e80000",
          "blockHash": "0x765270f5bfbbf7117e99de5814364b574bb5cea4931b2778dcef4b1de5fc6b50",
          "blockNumber": "0xb98dfd7",
          "transactionHash": "0x94a2d529814498f26988978b715a295f0f5f81e4cd2f51581abf5bbfb763aa00",
          "transactionIndex": "0x0",
          "logIndex": "0x0",
          "removed": false
        }
      ],
      "logsBloom": "0x00000000000000000000000000000000000000000000000000000000000000000000000400000000000000000000000000000001000000000000000000200000000000000800000000000000000000000000000000080000000000000000000010000000000000000000000000000000000000000000000000000000000000000000000000000000000000000000000000000000000000000000000000000000020000000000800000010000000000000000000000000000000000000000000000000000000000000000000000000000000000000000000000000000000000000010000000000000000000000000000000000000000000020000080000000000",
      "type": "0x2",
      "transactionHash": "0x94a2d529814498f26988978b715a295f0f5f81e4cd2f51581abf5bbfb763aa00",
      "transactionIndex": "0x0",
      "blockHash": "0x765270f5bfbbf7117e99de5814364b574bb5cea4931b2778dcef4b1de5fc6b50",
      "blockNumber": "0xb98dfd7",
      "gasUsed": "0xb42b",
      "effectiveGasPrice": "0x66720b300",
      "from": "0x21da5f265e1431b7d9c5660ae67d4dea91159d66",
      "to": "0x043c471bee060e00a56ccd02c0ca286808a5a436",
      "contractAddress": null
    },
    {
      "status": "0x1",
      "cumulativeGasUsed": "0x16bb4",
      "logs": [
        {
          "address": "0x6283d8384d8f6eaf24ec44d355f31cec0bdace3d",
          "topics": [
            "0x8c5be1e5ebec7d5bd14f71427d1e84f3dd0314c0f7b2291e5b200ac8c7c3b925",
            "0x00000000000000000000000021da5f265e1431b7d9c5660ae67d4dea91159d66",
            "0x0000000000000000000000008cc13474301fe5aa08c920db228a3bb1e68f5b13"
          ],
          "data": "0x00000000000000000000000000000000000000000000003635c9adc5dea00000",
          "blockHash": "0x765270f5bfbbf7117e99de5814364b574bb5cea4931b2778dcef4b1de5fc6b50",
          "blockNumber": "0xb98dfd7",
          "transactionHash": "0xbc24f01a3b1d50a6c4efb604c45fc85f975c51772b46d293c2f2e2fd2d4219f3",
          "transactionIndex": "0x1",
          "logIndex": "0x1",
          "removed": false
        }
      ],
      "logsBloom": "0x00000000000000000000000000000000000000000000000000000000000000000000000400000000000000000000000000000001000000010000000000200000000000000000000000000000000000001000000000080000000000000000000010000000000000000000000000000000000000000000000000000000000000000000000000000000000000000000000000000000000000000000000000000000020000000000800000000000000000000000000000000000000000000000000000000000000000000000000000000000000004000000000000000000000000000010000000000000000000000000000000000000000000020000000000000000",
      "type": "0x2",
      "transactionHash": "0xbc24f01a3b1d50a6c4efb604c45fc85f975c51772b46d293c2f2e2fd2d4219f3",
      "transactionIndex": "0x1",
      "blockHash": "0x765270f5bfbbf7117e99de5814364b574bb5cea4931b2778dcef4b1de5fc6b50",
      "blockNumber": "0xb98dfd7",
      "gasUsed": "0xb789",
      "effectiveGasPrice": "0x66720b300",
      "from": "0x21da5f265e1431b7d9c5660ae67d4dea91159d66",
      "to": "0x6283d8384d8f6eaf24ec44d355f31cec0bdace3d",
      "contractAddress": null
    },
    {
      "status": "0x1",
      "cumulativeGasUsed": "0x4e94d",
      "logs": [
        {
          "address": "0x043c471bee060e00a56ccd02c0ca286808a5a436",
          "topics": [
            "0xddf252ad1be2c89b69c2b068fc378daa952ba7f163c4a11628f55a4df523b3ef",
            "0x00000000000000000000000021da5f265e1431b7d9c5660ae67d4dea91159d66",
            "0x0000000000000000000000008cc13474301fe5aa08c920db228a3bb1e68f5b13"
          ],
          "data": "0x0000000000000000000000000000000000000000000000008ac7230489e80000",
          "blockHash": "0x765270f5bfbbf7117e99de5814364b574bb5cea4931b2778dcef4b1de5fc6b50",
          "blockNumber": "0xb98dfd7",
          "transactionHash": "0x5acb160325204eeae6ca8df943b82c290b41dea6bef821808e88fca2ee074905",
          "transactionIndex": "0x2",
          "logIndex": "0x2",
          "removed": false
        },
        {
          "address": "0x6283d8384d8f6eaf24ec44d355f31cec0bdace3d",
          "topics": [
            "0xddf252ad1be2c89b69c2b068fc378daa952ba7f163c4a11628f55a4df523b3ef",
            "0x00000000000000000000000021da5f265e1431b7d9c5660ae67d4dea91159d66",
            "0x0000000000000000000000008cc13474301fe5aa08c920db228a3bb1e68f5b13"
          ],
          "data": "0x00000000000000000000000000000000000000000000003635c9adc5dea00000",
          "blockHash": "0x765270f5bfbbf7117e99de5814364b574bb5cea4931b2778dcef4b1de5fc6b50",
          "blockNumber": "0xb98dfd7",
          "transactionHash": "0x5acb160325204eeae6ca8df943b82c290b41dea6bef821808e88fca2ee074905",
          "transactionIndex": "0x2",
          "logIndex": "0x3",
          "removed": false
        },
        {
          "address": "0x8cc13474301fe5aa08c920db228a3bb1e68f5b13",
          "topics": [
            "0x64b83944e79c3ce8d4c297411de637c3e102d064677aac0c163976ebdcd6f50e",
            "0x00000000000000000000000021da5f265e1431b7d9c5660ae67d4dea91159d66"
          ],
          "data": "0x0000000000000000000000000000000000000000000000008ac7230489e8000000000000000000000000000000000000000000000000003635c9adc5dea000000000000000000000000000000000000000000000000000056bc75e2d63100000",
          "blockHash": "0x765270f5bfbbf7117e99de5814364b574bb5cea4931b2778dcef4b1de5fc6b50",
          "blockNumber": "0xb98dfd7",
          "transactionHash": "0x5acb160325204eeae6ca8df943b82c290b41dea6bef821808e88fca2ee074905",
          "transactionIndex": "0x2",
          "logIndex": "0x4",
          "removed": false
        }
      ],
      "logsBloom": "0x000000000000000000000000000000000000000000000000000000000000000000000004000000000000000000000000000000010000000100000000100000000000010008000000000000088000000010000000000a0000000000000000000010000800000000000000000000000000000000000000000000000010000000000000000000000000000000000000000000000000000000000000000000000000000000000000800000010000000000000000000000000000000000000000000000000002000000000000000000000000000004000000000000000000020000000000000000000000000000000000000000000000000000020000080000000000",
      "type": "0x2",
      "transactionHash": "0x5acb160325204eeae6ca8df943b82c290b41dea6bef821808e88fca2ee074905",
      "transactionIndex": "0x2",
      "blockHash": "0x765270f5bfbbf7117e99de5814364b574bb5cea4931b2778dcef4b1de5fc6b50",
      "blockNumber": "0xb98dfd7",
      "gasUsed": "0x37d99",
      "effectiveGasPrice": "0x66720b300",
      "from": "0x21da5f265e1431b7d9c5660ae67d4dea91159d66",
      "to": "0x8cc13474301fe5aa08c920db228a3bb1e68f5b13",
      "contractAddress": null
    }
  ],
  "libraries": [],
  "pending": [],
  "returns": {},
  "timestamp": 1756205794,
  "chain": 1001,
  "commit": "755af08"
}